:020000040000fa
:080000000001040000000000f3
:020000040000fa
:04000800e202000010
:020000040000fa
:04000c00b20200003c
:020000040000fa
:04001000b802000032
:020000040000fa
:04001400be02000028
:020000040000fa
:04001800c40200001e
:020000040000fa
:04001c00e2020000fc
:020000040000fa
:04002000e2020000f8
:020000040000fa
:04002400e2020000f4
:020000040000fa
:0400280020020000b2
:020000040000fa
:04002c00e2020000ec
:020000040000fa
:04003000e2020000e8
:020000040000fa
:04003400e2020000e4
:020000040000fa
:04003800e2020000e0
:020000040000fa
:04003c00e2020000dc
:020000040000fa
:04004000e2020000d8
:020000040000fa
:04004400e2020000d4
:020000040000fa
:04004800e2020000d0
:020000040000fa
:04004c00e2020000cc
:020000040000fa
:04005000e2020000c8
:020000040000fa
:04005400e2020000c4
:020000040000fa
:04005800e2020000c0
:020000040000fa
:04005c00e2020000bc
:020000040000fa
:04006000e2020000b8
:020000040000fa
:04006400a8010000ef
:020000040000fa
:04006800460200004c
:020000040000fa
:04006c00e2020000ac
:020000040000fa
:04007000e2020000a8
:020000040000fa
:04007400e2020000a4
:020000040000fa
:04007800e2020000a0
:020000040000fa
:04007c00e20200009c
:020000040000fa
:04008000e202000098
:020000040000fa
:0400840090020000e6
:020000040000fa
:04008800e202000090
:020000040000fa
:04008c00e20200008c
:020000040000fa
:04009000e202000088
:020000040000fa
:04009400e202000084
:020000040000fa
:04009800e202000080
:020000040000fa
:04009c00e20200007c
:020000040000fa
:0400a000e202000078
:020000040000fa
:0400a400e202000074
:020000040000fa
:0400a800e202000070
:020000040000fa
:0400ac00e20200006c
:020000040000fa
:0400b000e202000068
:020000040000fa
:0400b400e202000064
:020000040000fa
:0400b800e202000060
:020000040000fa
:0400bc00e20200005c
:020000040000fa
:0400c000e202000058
:020000040000fa
:0400c400e202000054
:020000040000fa
:0400c800e202000050
:020000040000fa
:0400cc00e20200004c
:020000040000fa
:0400d000e202000048
:020000040000fa
:0400d400e202000044
:020000040000fa
:0400d800e202000040
:020000040000fa
:04010800e20200000f
:020000040000fa
:04010c00ca02000023
:020000040000fa
:04011000d002000019
:020000040000fa
:04011400d60200000f
:020000040000fa
:04011800dc02000005
:020000040000fa
:04011c00e2020000fb
:020000040000fa
:04012000e2020000f7
:020000040000fa
:04012400e2020000f3
:020000040000fa
:04012800e2020000ef
:020000040000fa
:04012c00e2020000eb
:020000040000fa
:04013000e2020000e7
:020000040000fa
:04013400e2020000e3
:020000040000fa
:04013800e2020000df
:020000040000fa
:04013c00e2020000db
:020000040000fa
:04014000e2020000d7
:020000040000fa
:04014400e2020000d3
:020000040000fa
:04014800e2020000cf
:020000040000fa
:04014c00e2020000cb
:020000040000fa
:04015000e2020000c7
:020000040000fa
:04015400e2020000c3
:020000040000fa
:04015800e2020000bf
:020000040000fa
:04015c00e2020000bb
:020000040000fa
:04016000e2020000b7
:020000040000fa
:04016400e2020000b3
:020000040000fa
:04016800e2020000af
:020000040000fa
:04016c00e2020000ab
:020000040000fa
:04017000e2020000a7
:020000040000fa
:04017400e2020000a3
:020000040000fa
:04017800e20200009f
:020000040000fa
:04017c00e20200009b
:020000040000fa
:04018000e202000097
:020000040000fa
:04018400e202000093
:020000040000fa
:04018800e20200008f
:020000040000fa
:04018c00e20200008b
:020000040000fa
:04019000e202000087
:020000040000fa
:04019400e202000083
:020000040000fa
:04019800e20200007f
:020000040000fa
:04019c00e20200007b
:020000040000fa
:0401a000e202000077
:020000040000fa
:0401a400e202000073
:020000040000fa
:0401a800e20200006f
:020000040000fa
:0401ac00e20200006b
:020000040000fa
:0401b000e202000067
:020000040000fa
:0401b400e202000063
:020000040000fa
:0401b800e20200005f
:020000040000fa
:0401bc00e20200005b
:020000040000fa
:0401c000e202000057
:020000040000fa
:0401c400e202000053
:020000040000fa
:0401c800e20200004f
:020000040000fa
:0401cc00e20200004b
:020000040000fa
:0401d000e202000047
:020000040000fa
:0401d400e202000043
:020000040000fa
:0401d800e20200003f
:020000040000fa
:10020000cfe020000eff20000e018800000000005b
:10021000000020000000e000020032000001200089
:10022000200288000c000700403920000100200057
:1002300011000700000020000000e0000200320072
:1002400000000200000000008c38020000000000e6
:100250000040da000000fe004440a9002000200019
:100260000000e0000300320000002000a001880030
:100270004440a8000000060091018800800078003a
:100280000000eb0015003700e280400032a0b4000f
:100290009101ba00e280400032a0b4009102ba009d
:1002a000e280400032a0b4000002eb00472bde00e9
:1002b000f507b200602ce10004003a000059eb00a1
:1002c0008301e900fdff3e00040037006128e100e2
:1002d000010032000082eb000b00070011c3ba00de
:1002e0001101ba000604e00003003a000200e00039
:1002f000e5ff3a0000000600f607b200960188000c
:1003000082007800f5ff37003159ba008301e90017
:100310000c0032002159ba008301e90008003200c4
:100320000400e00003003a00e280400032a0b40084
:10033000f5ff370011d9ba008301e900faff3a004e
:100340008100e800e180400032a0b4000000060017
:10035000809fbe00821f78003400f800000020005b
:10036000a00188000400fa0085e0a9007116800051
:10037000010f780001178000110798001e00780017
:100380004e00de00614060000080fb006100600004
:1003900032708000e1ff2f008100610001007000d9
:1003a000307088001e0090004400de006140600054
:1003b0000080fb006100600000004000327080009f
:1003c000d1ff2f00810061000100700030708800b3
:1003d0001e0090004500de00614060000080fb00d0
:1003e000610060004200dd0032708000b1ff2f002c
:1003f0008100610001007000307088001e007800ec
:100400004d00de00614060008080fb0000708000d5
:10041000808f5000050032001e0078004d00de0085
:10042000614060000080fb00007088000080fa00de
:100430003400f9004f0178004f00be000040060074
:100440003600f800809fbe00829fbe00849fbe00e1
:10045000869fbe003400f80000002000a001880044
:100460000000fa00d41a07008400a9000080fa00f6
:100470003400f9004f03be004f02be004f01be0022
:100480004f00be003600f900004006003600f800bc
:10049000809fbe00829fbe00849fbe00869fbe00dc
:1004a0003400f80000002000a00188000000fa00dd
:1004b0000117800000042000008060000000e000c0
:1004c0000e003a00c71a070004cebf000004e00087
:1004d00006003a001070800000407800cc1a070037
:1004e00010c0b30004eeb700040037000040eb007a
:1004f000c71a0700046eef00022eef008600a90065
:100500000080fa003400f9004f03be004f02be0025
:100510004f01be004f00be003600f900004006004b
:10052000809fbe003400f80000002000a001880079
:100530000000fa0001178000000420000080600025
:100540000000e00002003a0010c0b3000aeeb7005d
:1005500086e0a9000080fa003400f9004f00be00d8
:10056000004006000000fa008020a900ffff3700cd
:100570000000fa008060a900ffff37000000fa00c9
:100580008040a900ffff37000000fa008080a9002a
:10059000ffff37000000fa008020a900ffff3700ae
:1005a0000000fa008060a900ffff37000000fa0099
:1005b0008040a900ffff37000000fa008080a900fa
:1005c000ffff37000000fa00ffff37000015800032
:1005d000610060000000a200000006008560a90024
:1005e000e7006000f2ff2800cc08dd00c3048000b3
:1005f0000301610068006000028170004300de00ba
:10060000c204880061006000f17f2f004b00dd0014
:1006100062048000828060008100700061048800b4
:1006200000000600a022a900000006004315880073
:1006300054158800e2016000221588001115880019
:1006400000158800d0ff2f00a002b60000807100c6
:100650000015880000000600012820000080fb0033
:10066000000040006100780000000600301588009e
:10067000000006003200f800023b8800910188006b
:100680000008bb000500fc0051052000313b88003c
:10069000a10a2000313b880061e7a80000000000ab
:1006a000000000003200f900000006000400a10074
:1006b000010037000400a0003200f800910188001a
:1006c00011002400013b8800f10f20003208bb001c
:1006d0000400a700b20078000198bb008301e90084
:1006e000faff3a00680151000400a70068015100b8
:1006f000680050001208bb00e2ff3700f30f200033
:100700003200f8009101880031002400013b88008c
:100710000208bb000388bb00daff37003200f80094
:08072000003b8800d7ff370001
:020000040000fa
:10072800000800000c06000000000000a203800082
:020000040000fa
:0c0738000000fa000080fa00000006003b
:020000040000fa
:0407440000000000b1
:020000040000fa
:100780000000000000000000000000000000000069
:100790000000000000000000000000000000000059
:1007a0000000000000000000000000000000000049
:1007b0000000000000000000000000000000000039
:020000040000fa
:020000040000fa
:106780000c00fa00004f9800510798000e48900046
:106790000000fb00ca00dd005e00900000804000a9
:1067a000000278004f80de0080027800003c20006c
:1067b000010020000400400085804800a401800002
:1067c00000f0a4008180d200a10188001040780070
:1067d000a4018800004f78005e0090000000d10006
:1067e000100798000e4890000000fb00c900dd0073
:1067f0001e00900000804000000178004f80de0005
:1068000080017800003c22000100200002004000ce
:1068100083804800a201800000f0a4008180d200a3
:10682000a101880010407800a2018800404798002c
:106830005e00900061006000004078000004e0000d
:1068400004003200ce40900000cfb30000c06000d2
:10685000020037004e4090006f40600050479800a3
:106860005e4090000000fb00c800dd001e00fb0041
:1068700000804000300798003e0090000080fa0041
:10688000000006000a00fa0040079800ce009000c1
:106890000080200000804000104f78004e009000e3
:1068a0000000d100100798009e00900000c020005a
:1068b0000080400090407800414798004e009000d2
:1068c00061006000004078000004e0000400320035
:1068d000ce40900000cfb30000c06000020037003f
:1068e0004e4090006f406000504798005e4090001e
:1068f0000000fb00c800dd001e00fb00008040001f
:10690000300798003e0090000080fa00000006006a
:106910000a00fa0030079800410798004e009000e6
:10692000004f78004e0090004800de0010479800ad
:10693000be00900000802000008040001e487800cb
:106940003e0090000000d100100798009e009000cb
:1069500000c020000080400090407800414798002f
:106960003e00900061006000004078000004e000fc
:10697000070032009e409000400020008008dd00ab
:106980004e4090006f40600000c04000050037009e
:10699000ce40900000cfb30080c060001e40900049
:1069a00000c040001e01900001c020008100410095
:1069b000804878000080fa00000006000c00fa0011
:1069c0004047980031079800420798005307980005
:1069d000be0090004e009000808f500002003a00f0
:1069e0003e0090001f003700ce0090003e00900057
:1069f000008050008000d1003e009000008f4000d9
:106a00009e0078004e4090005dff07001007980040
:106a10009e0090005e009000808f500006003100c4
:106a2000de0190004e0190009e0078004e409000e4
:106a3000e2ff07000b0037009e0090005e00900010
:106a4000808f500006003600de0190001e017800a5
:106a5000be0090004e409000d8ff070001003700b4
:106a60001e0078000080fa00000006000400fa0012
:106a7000004f7800110798009e019000f23f20001f
:106a80008000eb001e407800ccff07000080fa0079
:106a9000000006000200fa000000eb00000f780082
:106aa0000000eb00000f78000d003700f01f200001
:106ab0009e007800808f500004003c0000c0200041
:106ac0001e0040008040eb0001487800008020005c
:106ad0001e0040008040eb00014878001e0fe800d7
:106ae000f03f20009e007800808f5000efff3400c0
:106af0000080fa00000006000c00fa000000eb0025
:106b0000000f78000000eb005eff070030079800e0
:106b1000be0090004107980010002000000f780090
:106b20002b0037001e00780056ff07004007980032
:106b300010002000500798004e0090000000e00078
:106b400022003a001e00e800100798001e00900086
:106b50004cff0700200798000d0037001e00900032
:106b60000000e800100798009e009000f03f200011
:106b7000808f500004003c001e00900041ff070081
:106b80002007980002003700f0ff2000200798003f
:106b90002e0090000000e000f0ff3200ae009000f8
:106ba0003e009000808050001e0090001e005000ab
:106bb00000017800110009008200d8004007980009
:106bc000ce0090001e00780051ff07001e0fe80065
:106bd000e03f20009e007800808f5000d1ff3400fd
:106be000f03f200027ff0700400798004e0090006c
:106bf0000000e00003003a00f1ff2000f03f200019
:106c000043ff07000080fa00000006006000fa0061
:106c100060df98006ed890000000fb004a00dd00a5
:106c200030079800003c2000010020004007980039
:106c3000510798003e009000cf80de004e0190008a
:106c4000de01900002004000838048004007980069
:106c5000510798000000eb00000f78003500370066
:106c60001e0078006101b9004e009000de00900027
:106c70000200400083804800600798007107980078
:106c8000120424006e009000fe00900079e60700d8
:106c90000000eb00100798000000eb0010079800c0
:106ca000190037001e009000000040001e00400048
:106cb000000f98008e0890000080200000804000a7
:106cc000104078008000fb000e0890000001e800f2
:106cd0000080200000004100104078000000fb0010
:106ce0004800dd00808040001e0090000000400051
:106cf000000047007e004000010878001e00900060
:106d00000000e800100798001e009000ff0f5000e0
:106d1000e4ff34007e0047000302200000017800f9
:106d20006e009000fe00900060e607000104200065
:106d30001e8f4000f03f20009e007800808f5000a2
:106d4000c7ff34006ed890000000fb004900dd0052
:106d5000100f9800003c220001002000200f980036
:106d6000310f98001e089000cf80de002e099000a1
:106d7000be0990000200400083804800200f980068
:106d8000310f98000000eb00000f7800350037004d
:106d90001e0078006101b9002e089000be08900026
:106da0000200400083804800400f9800510f980077
:106db000120424004e089000de0890002de6070023
:106dc0000000eb00200798000000eb00200798006f
:106dd000190037002e009000000040001e00400007
:106de000600f9800ee08900000c020000080400076
:106df000104078008000fb006e0890000001e80061
:106e000000c0200000004100104078000000fb009e
:106e10004800dd00808040002e009000000040000f
:106e2000000047007e004000010878002e0090001e
:106e30000000e800200798002e009000ff0f50008f
:106e4000e4ff34007e0047000302200000017800c8
:106e50004e089000de08900014e6070001042000b0
:106e60001e8f4000f01f20009e007800808f500091
:106e7000c7ff34000080fa00000006000200fa009c
:106e8000307080004200de00614060008040780089
:106e9000200020008008dd00307080000000d1005c
:106ea000614060000040400080c0400030708000c1
:106eb0006140600000c04000004f78001e40780034
:106ec0000080fa00000006001000fa007007980029
:106ed000a1e2a9007e0090000000e00003003a005b
:106ee00000ff2f00000f7800050037007e009000a3
:106ef000e10f500002003a0010ff2f00000f780051
:106f00001e007800d9e5070070ff2f00b3e50700e9
:106f1000c0ff2f00100798000000eb00200798002a
:106f200090a52e003007980000bc20004007980074
:106f3000d0cf2d00500798002e0290009e019000a7
:106f40003e019000ce0090005e009000b7e5070083
:106f5000a022a80000000000001580006200600070
:106f60000000e000fcff3a00aee507000000000072
:106f700000158000620060000000e000fcff3a00a5
:106f80000000000091e507000004e000fdff320072
:106f9000000000008de507000004e000fdff3a005e
:106fa0000040eb00ace50700600798006e00900021
:106fb0000080fa00000006000000fa00c642a800a7
:106fc000c662a800c682a800c6a2a800c6c2a800c1
:106fd000c6e2a800c702a800c722a8000080fa00e5
:106fe000000006000000fa00c642a900c662a9001f
:106ff000c682a900c6a2a900c6c2a900c6e2a9000d
:10700000c702a900c722a9000080fa0000000600fc
:107010000400fa00204798002e4090000000fb007a
:10702000000f78001e0078004200dd00000f78009d
:107030009e007800511688000080fa0000000600cb
:107040000000fa00c602a800c622a800daff070066
:10705000cde2a900cda2a800cdc2a800de42a800c2
:10706000de62a800de82a800dea2a800dec2a800c0
:10707000d302a800d322a800a802a900a822a90030
:10708000a842a800a862a800a882a800a902a80097
:10709000a922a800c400a900c420a800c440a900d7
:1070a000c460a900c480a900c4a0a900c4c0a900ec
:1070b000c4e0a900c620a900c640a900c000a800dd
:1070c000c020a800c040a900c060a900c080a900dd
:1070d000c0a0a900c0c0a900c0e0a900c220a800ab
:1070e000c240a80085e0a9008de0a8008400a900a6
:1070f0008600a90086e0a9008200a9008220a800dd
:107100008240a8008c00a8008e00a8008ee0a80095
:107110000080fa00000006000e00fa0086e5070075
:10712000c7ff07005bfe07000100370000000000fa
:1071300008cebf000004e00011003a00000000008b
:107140000acebf000004e000fdff32004bff070045
:10715000004f78000000eb005bff0700100798006d
:107160009e0090001e40780040fe07002007980017
:10717000ae00900011708800046eef00ecff370045
:10718000000000000acebf000004e000fdff320056
:107190003aff07006047980009cebf00ee4090001c
:1071a00080cf5000e1ff3a001000200046ff0700aa
:1071b000400798000000eb0043ff070050079800cd
:1071c0004e0090004200de0060079800de00900054
:0c71d0006e009000cefd0700d5ff3700d8
:020000040000fa
:0200000401f009
:04000000e3bf00005a
:020000040000fa
:0200000401f009
:04000400ff7f00007a
:020000040000fa
:0200000401f009
:04000800ffff0000f6
:020000040000fa
:0200000401f009
:04001400ffff0000ea
:020000040000fa
:0200000401f009
:04001800ffff0000e6
:00000001FF
