:020000040000fa
:080000000001040000000000f3
:020000040000fa
:04000800d80100001b
:020000040000fa
:04000c00a801000047
:020000040000fa
:04001000ae0100003d
:020000040000fa
:04001400b401000033
:020000040000fa
:04001800ba01000029
:020000040000fa
:04001c00d801000007
:020000040000fa
:04002000d801000003
:020000040000fa
:04002400d8010000ff
:020000040000fa
:04002800d8010000fb
:020000040000fa
:04002c00d8010000f7
:020000040000fa
:04003000d8010000f3
:020000040000fa
:04003400d8010000ef
:020000040000fa
:04003800d8010000eb
:020000040000fa
:04003c00d8010000e7
:020000040000fa
:04004000d8010000e3
:020000040000fa
:04004400d8010000df
:020000040000fa
:04004800d8010000db
:020000040000fa
:04004c00d8010000d7
:020000040000fa
:04005000d8010000d3
:020000040000fa
:04005400d8010000cf
:020000040000fa
:04005800d8010000cb
:020000040000fa
:04005c00d8010000c7
:020000040000fa
:04006000d8010000c3
:020000040000fa
:04006400d8010000bf
:020000040000fa
:04006800d8010000bb
:020000040000fa
:04006c00d8010000b7
:020000040000fa
:04007000d8010000b3
:020000040000fa
:04007400d8010000af
:020000040000fa
:04007800d8010000ab
:020000040000fa
:04007c00d8010000a7
:020000040000fa
:04008000d8010000a3
:020000040000fa
:04008400d80100009f
:020000040000fa
:04008800d80100009b
:020000040000fa
:04008c00d801000097
:020000040000fa
:04009000d801000093
:020000040000fa
:04009400d80100008f
:020000040000fa
:04009800d80100008b
:020000040000fa
:04009c00d801000087
:020000040000fa
:0400a000d801000083
:020000040000fa
:0400a400d80100007f
:020000040000fa
:0400a800d80100007b
:020000040000fa
:0400ac00d801000077
:020000040000fa
:0400b000d801000073
:020000040000fa
:0400b400d80100006f
:020000040000fa
:0400b800d80100006b
:020000040000fa
:0400bc00d801000067
:020000040000fa
:0400c000d801000063
:020000040000fa
:0400c400d80100005f
:020000040000fa
:0400c800d80100005b
:020000040000fa
:0400cc00d801000057
:020000040000fa
:0400d000d801000053
:020000040000fa
:0400d400d80100004f
:020000040000fa
:0400d800d80100004b
:020000040000fa
:04010800d80100001a
:020000040000fa
:04010c00c00100002e
:020000040000fa
:04011000c601000024
:020000040000fa
:04011400cc0100001a
:020000040000fa
:04011800d201000010
:020000040000fa
:04011c00d801000006
:020000040000fa
:04012000d801000002
:020000040000fa
:04012400d8010000fe
:020000040000fa
:04012800d8010000fa
:020000040000fa
:04012c00d8010000f6
:020000040000fa
:04013000d8010000f2
:020000040000fa
:04013400d8010000ee
:020000040000fa
:04013800d8010000ea
:020000040000fa
:04013c00d8010000e6
:020000040000fa
:04014000d8010000e2
:020000040000fa
:04014400d8010000de
:020000040000fa
:04014800d8010000da
:020000040000fa
:04014c00d8010000d6
:020000040000fa
:04015000d8010000d2
:020000040000fa
:04015400d8010000ce
:020000040000fa
:04015800d8010000ca
:020000040000fa
:04015c00d8010000c6
:020000040000fa
:04016000d8010000c2
:020000040000fa
:04016400d8010000be
:020000040000fa
:04016800d8010000ba
:020000040000fa
:04016c00d8010000b6
:020000040000fa
:04017000d8010000b2
:020000040000fa
:04017400d8010000ae
:020000040000fa
:04017800d8010000aa
:020000040000fa
:04017c00d8010000a6
:020000040000fa
:04018000d8010000a2
:020000040000fa
:04018400d80100009e
:020000040000fa
:04018800d80100009a
:020000040000fa
:04018c00d801000096
:020000040000fa
:04019000d801000092
:020000040000fa
:04019400d80100008e
:020000040000fa
:04019800d80100008a
:020000040000fa
:04019c00d801000086
:020000040000fa
:0401a000d801000082
:020000040000fa
:0401a400d80100007e
:020000040000fa
:0401a800d80100007a
:020000040000fa
:0401ac00d801000076
:020000040000fa
:0401b000d801000072
:020000040000fa
:0401b400d80100006e
:020000040000fa
:0401b800d80100006a
:020000040000fa
:0401bc00d801000066
:020000040000fa
:0401c000d801000062
:020000040000fa
:0401c400d80100005e
:020000040000fa
:0401c800d80100005a
:020000040000fa
:0401cc00d801000056
:020000040000fa
:0401d000d801000052
:020000040000fa
:0401d400d80100004e
:020000040000fa
:0401d800d80100004a
:020000040000fa
:100200000fe020000eff20000e018800000000001b
:10021000000020000000e000020032000001200089
:10022000200288000c000700a04b230001002000e2
:1002300011000700000020000000e0000200320072
:100240000000020000000000043402000000000072
:100250000040da000000fe004440a9002000200019
:100260000000e0000300320000002000a001880030
:100270004440a8000000060091018800800078003a
:100280000000eb0015003700e280400032a0b4000f
:100290009101ba00e280400032a0b4009102ba009d
:1002a000e280400032a0b4000002eb00472bde00e9
:1002b000f507b200602ce10004003a000059eb00a1
:1002c0008301e900fdff3e00040037006128e100e2
:1002d000010032000082eb000b00070011c3ba00de
:1002e0001101ba000604e00003003a000200e00039
:1002f000e5ff3a0000000600f607b200960188000c
:1003000082007800f5ff37003159ba008301e90017
:100310000c0032002159ba008301e90008003200c4
:100320000400e00003003a00e280400032a0b40084
:10033000f5ff370011d9ba008301e900faff3a004e
:100340008100e800e180400032a0b4000000060017
:100350000000fa008020a900ffff37000000fa002b
:100360008060a900ffff37000000fa008040a9006c
:10037000ffff37000000fa008080a900ffff370070
:100380000000fa008020a900ffff37000000fa00fb
:100390008060a900ffff37000000fa008040a9003c
:1003a000ffff37000000fa008080a900ffff370040
:1003b0000000fa00ffff37003200f800023b88001f
:1003c000910188000008bb000500fc0051052000d9
:1003d000313b8800a10a2000313b880061e7a8007a
:1003e00000000000000000003200f90000000600dc
:1003f0000400a100010037000400a0003200f80052
:100400009101880011002400013b8800f10f2000b9
:100410003208bb000400a700b20078000198bb00be
:100420008301e900faff3a00680151000400a700c7
:1004300068015100680050001208bb00e2ff37005d
:10044000f30f20003200f8009101880031002400f1
:10045000013b88000208bb000388bb00daff3700bd
:100460003200f800003b8800d7ff3700839f680008
:100470000100e00002003d0060001000e080180074
:100480000300e00002003d0060011100e08119005e
:10049000050007004f00e00002003b006000100074
:1004a000e0801800000006006022b800060220006c
:1004b0000000d0008180d2000482d2008582d20068
:1004c0000000a0000202520083825a0003003100a3
:1004d0000202420083824a000000a1000603e900f4
:0804e000f3ff3a0000000600e2
:020000040000fa
:1004e8000000000000000000000000000000000004
:1004f80000000000000000000000000000000000f4
:1005080000000000000000000000000000000000e3
:1005180000000000000000000000000000000000d3
:020000040000fa
:020000040000fa
:1064e8000e00fa00204f9800610798002e4890008f
:1064f8000000fb00ca00dd006e0090000080400034
:10650800000278004f80de008002780040272000db
:10651800010020000400400085804800a40180009c
:1065280000f0a4008180d200a1018800104078000a
:10653800a40188000000fb00000f78006e009000a6
:106548000000d100100798002e4890000000fb00c2
:10655800c900dd001e0090000080400000017800a6
:106568004f80de00800178004027220001002000d3
:106578000200400083804800a201800000f0a400cf
:106588008180d200a101880010407800a201880013
:106598000000fb00200798006e009000610060007a
:1065a800004078000004e00004003200ae009000d3
:1065b800000f200000806000020037002e009000cd
:1065c8006f006000300798003e0090004800dd0032
:1065d8001e004000400798004e0090000080fa001e
:1065e800000006000c00fa004047980031079800a8
:1065f8004207980053079800be0090004e00900094
:10660800808f500002003a003e0090001f003700c3
:10661800ce0090003e009000008050008000d10025
:106628003e009000008f40009e0078004e40900091
:10663800abff0700100798009e0090005e009000d6
:10664800808f500006003100de0190004e0190005e
:106658009e0078004e409000e2ff07000b003700d4
:106668009e0090005e009000808f5000060036006b
:10667800de0190001e017800be0090004e409000a0
:10668800d8ff0700010037001e0078000080fa00dc
:10669800000006000400fa00004f78001107980077
:1066a8009e019000f23f20008000eb001e40780021
:1066b800ccff07000080fa00000006001400fa0072
:1066c800205798004027200001002000100798005c
:1066d800210798000000eb00000f78001a0037002f
:1066e8001e0078006101b9001e009000ae00900005
:1066f8000200400083804800300798004107980056
:10670800120424003e009000ce00900028e7070005
:106718002e5090008000fb00008020000080400088
:10672800104078000000fb001e004000030220001b
:10673800000178003e009000ce0090002ae7070094
:10674800010420001e8f4000f03f20009e007800ca
:10675800808f5000e2ff3400402722000100200013
:1067680050079800610798000000eb00000f7800c0
:106778001a0037001e0078006101b9005e00900021
:10678800ee009000020040008380480070079800e7
:10679800010f9800120424007e0090008e089000db
:1067a80003e707002e5090008000fb0000c0200087
:1067b80000804000104078000000fb001e004000f0
:1067c80003022000000178007e0090008e089000ef
:1067d80005e70700010420001e8f4000f01f20007d
:1067e8009e007800808f5000e2ff34000080fa009d
:1067f800000006000000fa000080fa000000060011
:106808001600fa000040eb00004f78000040eb0053
:106818001047980059000700f6ff07001e4078004f
:106828000004e00009003a000040eb00104798001f
:106838000000eb00100798009e0090001e4090009a
:1068480094ff070020079800f4ff37000040eb0092
:10685800104798000000eb00300798000000eb009c
:10686800400798003e0090006a00b90000007800d8
:106878008000eb0050079800610798005e009000c8
:10688800ee009000c200200003002000f5e607009b
:106898005007980061079800ce009000f00f200084
:1068a80000806000700798004e0090004800de00ed
:1068b800000f98007e009000804078005e019000f4
:1068c8000080200000004100014878005e00900030
:1068d800ee0090004f09de008001eb00020040004e
:1068e800838048008180d1000080d300100f980079
:1068f8009e08900000c02000008040009040780072
:10690800415798005e0090006100600000407800e8
:106918000004e000080032000e0890008040780073
:10692800400020008008dd004e5090006f4060005d
:1069380000c0400006003700ce50900000cfb300e2
:1069480080c060000e0890000040780000c0400041
:106958001e09900001c02000810041008048780095
:0c6968001e40900055ff0700acff3700f8
:020000040000fa
:10697400000800000006000000000000c834800089
:020000040000fa
:0c6984000000fa000080fa00000006008d
:020000040000fa
:046990000000000003
:020000040000fa
:0200000401f009
:04000000e3bf00005a
:020000040000fa
:0200000401f009
:04000400ff7f00007a
:020000040000fa
:0200000401f009
:04000800ffff0000f6
:020000040000fa
:0200000401f009
:04001400ffff0000ea
:020000040000fa
:0200000401f009
:04001800ffff0000e6
:00000001FF
