:020000040000fa
:080000000001040000000000f3
:020000040000fa
:04000800d80100001b
:020000040000fa
:04000c00a801000047
:020000040000fa
:04001000ae0100003d
:020000040000fa
:04001400b401000033
:020000040000fa
:04001800ba01000029
:020000040000fa
:04001c00d801000007
:020000040000fa
:04002000d801000003
:020000040000fa
:04002400d8010000ff
:020000040000fa
:04002800d8010000fb
:020000040000fa
:04002c00d8010000f7
:020000040000fa
:04003000d8010000f3
:020000040000fa
:04003400d8010000ef
:020000040000fa
:04003800d8010000eb
:020000040000fa
:04003c00d8010000e7
:020000040000fa
:04004000d8010000e3
:020000040000fa
:04004400d8010000df
:020000040000fa
:04004800d8010000db
:020000040000fa
:04004c00d8010000d7
:020000040000fa
:04005000d8010000d3
:020000040000fa
:04005400d8010000cf
:020000040000fa
:04005800d8010000cb
:020000040000fa
:04005c00d8010000c7
:020000040000fa
:04006000d8010000c3
:020000040000fa
:04006400d8010000bf
:020000040000fa
:04006800d8010000bb
:020000040000fa
:04006c00d8010000b7
:020000040000fa
:04007000d8010000b3
:020000040000fa
:04007400d8010000af
:020000040000fa
:04007800d8010000ab
:020000040000fa
:04007c00d8010000a7
:020000040000fa
:04008000d8010000a3
:020000040000fa
:04008400d80100009f
:020000040000fa
:04008800d80100009b
:020000040000fa
:04008c00d801000097
:020000040000fa
:04009000d801000093
:020000040000fa
:04009400d80100008f
:020000040000fa
:04009800d80100008b
:020000040000fa
:04009c00d801000087
:020000040000fa
:0400a000d801000083
:020000040000fa
:0400a400d80100007f
:020000040000fa
:0400a800d80100007b
:020000040000fa
:0400ac00d801000077
:020000040000fa
:0400b000d801000073
:020000040000fa
:0400b400d80100006f
:020000040000fa
:0400b800d80100006b
:020000040000fa
:0400bc00d801000067
:020000040000fa
:0400c000d801000063
:020000040000fa
:0400c400d80100005f
:020000040000fa
:0400c800d80100005b
:020000040000fa
:0400cc00d801000057
:020000040000fa
:0400d000d801000053
:020000040000fa
:0400d400d80100004f
:020000040000fa
:0400d800d80100004b
:020000040000fa
:04010800d80100001a
:020000040000fa
:04010c00c00100002e
:020000040000fa
:04011000c601000024
:020000040000fa
:04011400cc0100001a
:020000040000fa
:04011800d201000010
:020000040000fa
:04011c00d801000006
:020000040000fa
:04012000d801000002
:020000040000fa
:04012400d8010000fe
:020000040000fa
:04012800d8010000fa
:020000040000fa
:04012c00d8010000f6
:020000040000fa
:04013000d8010000f2
:020000040000fa
:04013400d8010000ee
:020000040000fa
:04013800d8010000ea
:020000040000fa
:04013c00d8010000e6
:020000040000fa
:04014000d8010000e2
:020000040000fa
:04014400d8010000de
:020000040000fa
:04014800d8010000da
:020000040000fa
:04014c00d8010000d6
:020000040000fa
:04015000d8010000d2
:020000040000fa
:04015400d8010000ce
:020000040000fa
:04015800d8010000ca
:020000040000fa
:04015c00d8010000c6
:020000040000fa
:04016000d8010000c2
:020000040000fa
:04016400d8010000be
:020000040000fa
:04016800d8010000ba
:020000040000fa
:04016c00d8010000b6
:020000040000fa
:04017000d8010000b2
:020000040000fa
:04017400d8010000ae
:020000040000fa
:04017800d8010000aa
:020000040000fa
:04017c00d8010000a6
:020000040000fa
:04018000d8010000a2
:020000040000fa
:04018400d80100009e
:020000040000fa
:04018800d80100009a
:020000040000fa
:04018c00d801000096
:020000040000fa
:04019000d801000092
:020000040000fa
:04019400d80100008e
:020000040000fa
:04019800d80100008a
:020000040000fa
:04019c00d801000086
:020000040000fa
:0401a000d801000082
:020000040000fa
:0401a400d80100007e
:020000040000fa
:0401a800d80100007a
:020000040000fa
:0401ac00d801000076
:020000040000fa
:0401b000d801000072
:020000040000fa
:0401b400d80100006e
:020000040000fa
:0401b800d80100006a
:020000040000fa
:0401bc00d801000066
:020000040000fa
:0401c000d801000062
:020000040000fa
:0401c400d80100005e
:020000040000fa
:0401c800d80100005a
:020000040000fa
:0401cc00d801000056
:020000040000fa
:0401d000d801000052
:020000040000fa
:0401d400d80100004e
:020000040000fa
:0401d800d80100004a
:020000040000fa
:100200006fe020000eff20000e01880000000000bb
:10021000000020000000e000020032000001200089
:10022000200288000c000700006c23000100200061
:1002300011000700000020000000e0000200320072
:10024000000002000000000016360200000000005e
:100250000040da000000fe004440a9002000200019
:100260000000e0000300320000002000a001880030
:100270004440a8000000060091018800800078003a
:100280000000eb0015003700e280400032a0b4000f
:100290009101ba00e280400032a0b4009102ba009d
:1002a000e280400032a0b4000002eb00472bde00e9
:1002b000f507b200602ce10004003a000059eb00a1
:1002c0008301e900fdff3e00040037006128e100e2
:1002d000010032000082eb000b00070011c3ba00de
:1002e0001101ba000604e00003003a000200e00039
:1002f000e5ff3a0000000600f607b200960188000c
:1003000082007800f5ff37003159ba008301e90017
:100310000c0032002159ba008301e90008003200c4
:100320000400e00003003a00e280400032a0b40084
:10033000f5ff370011d9ba008301e900faff3a004e
:100340008100e800e180400032a0b4000000060017
:100350000000fa008020a900ffff37000000fa002b
:100360008060a900ffff37000000fa008040a9006c
:10037000ffff37000000fa008080a900ffff370070
:100380000000fa008020a900ffff37000000fa00fb
:100390008060a900ffff37000000fa008040a9003c
:1003a000ffff37000000fa008080a900ffff370040
:1003b0000000fa00ffff37003200f800023b88001f
:1003c000910188000008bb000500fc0051052000d9
:1003d000313b8800a10a2000313b880061e7a8007a
:1003e00000000000000000003200f90000000600dc
:1003f0000400a100010037000400a0003200f80052
:100400009101880011002400013b8800f10f2000b9
:100410003208bb000400a700b20078000198bb00be
:100420008301e900faff3a00680151000400a700c7
:1004300068015100680050001208bb00e2ff37005d
:10044000f30f20003200f8009101880031002400f1
:10045000013b88000208bb000388bb00daff3700bd
:100460003200f800003b8800d7ff37008000eb0027
:10047000107088002170880011c0b30000e02000d7
:10048000014878000000060000e020001004e000b1
:1004900002003a0010002000f4ff0700d2e624001a
:1004a000631c240010708000217080000900070088
:1004b00092032300030020000001410081814900d4
:1004c00012708800237088000300780000f0a100fb
:1004d00000000600020ab900001bb9000200b800c3
:0c04e00081004200810043000000060083
:020000040000fa
:0c04ec000000fa000080fa00000006008a
:020000040000fa
:0404f8000000000000
:020000040000fa
:1005000012000000000000000000000000000000d9
:1005100000000000000000000000000000000000db
:1005200000000000000000000000000000000000cb
:1005300000000000000000000000000000000000bb
:1005400000000000000000000000000000000000ab
:020000040000fa
:104500003400000000000000000000000000000077
:10451000000000000000000000000000000000009b
:10452000000000000000000000000000000000008b
:10453000000000000000000000000000000000007b
:10454000000000000000000000000000000000006b
:020000040000fa
:106500000c00fa00004f9800510798000e489000c8
:106510000000fb00ca00dd005e009000008040002b
:10652000000278004f80de00800278000028200002
:10653000010020000400400085804800a401800084
:1065400000f0a4008180d200a101880010407800f2
:10655000a4018800004f78005e0090000000d10088
:10656000100798000e4890000000fb00c900dd00f5
:106570001e00900000804000000178004f80de0087
:106580008001780000282200010020000200400065
:1065900083804800a201800000f0a4008180d20026
:1065a000a101880010407800a201880040479800af
:1065b0005e00900061006000004078000004e00090
:1065c00004003200ce40900000cfb30000c0600055
:1065d000020037004e4090006f4060005047980026
:1065e0005e4090000000fb00c800dd001e00fb00c4
:1065f00000804000300798003e0090000080fa00c4
:10660000000006000a00fa0040079800ce00900043
:106610000080200000804000104f78004e00900065
:106620000000d100100798009e00900000c02000dc
:106630000080400090407800414798004e00900054
:1066400061006000004078000004e00004003200b7
:10665000ce40900000cfb30000c0600002003700c1
:106660004e4090006f406000504798005e409000a0
:106670000000fb00c800dd001e00fb0000804000a1
:10668000300798003e0090000080fa0000000600ed
:106690000a00fa0030079800410798004e00900069
:1066a000004f78004e0090004800de001047980030
:1066b000be00900000802000008040001e4878004e
:1066c0003e0090000000d100100798009e0090004e
:1066d00000c02000008040009040780041479800b2
:1066e0003e00900061006000004078000004e0007f
:1066f000070032009e409000400020008008dd002e
:106700004e4090006f40600000c040000500370020
:10671000ce40900000cfb30080c060001e409000cb
:1067200000c040001e01900001c020008100410017
:10673000804878000080fa00000006000c00fa0093
:106740004047980031079800420798005307980087
:10675000be0090004e009000808f500002003a0072
:106760003e0090001f003700ce0090003e009000d9
:10677000008050008000d1003e009000008f40005b
:106780009e0078004e4090005dff070010079800c3
:106790009e0090005e009000808f50000600310047
:1067a000de0190004e0190009e0078004e40900067
:1067b000e2ff07000b0037009e0090005e00900093
:1067c000808f500006003600de0190001e01780028
:1067d000be0090004e409000d8ff07000100370037
:1067e0001e0078000080fa00000006000400fa0095
:1067f000004f7800110798009e019000f23f2000a2
:106800008000eb001e407800ccff07000080fa00fb
:10681000000006000200fa000000eb00000f780004
:106820000000eb00000f78000d003700f01f200083
:106830009e007800808f500004003c0000c02000c3
:106840001e0040008040eb000148780000802000de
:106850001e0040008040eb00014878001e0fe80059
:10686000f03f20009e007800808f5000efff340042
:106870000080fa00000006000c00fa000000eb00a7
:10688000000f78000000eb005eff07003007980063
:10689000be0090004107980010002000000f780013
:1068a0002b0037001e00780056ff070040079800b5
:1068b00010002000500798004e0090000000e000fb
:1068c00022003a001e00e800100798001e00900009
:1068d0004cff0700200798000d0037001e009000b5
:1068e0000000e800100798009e009000f03f200094
:1068f000808f500004003c001e00900041ff070004
:106900002007980002003700f0ff200020079800c1
:106910002e0090000000e000f0ff3200ae0090007a
:106920003e009000808050001e0090001e0050002d
:1069300000017800110009008200d800400798008b
:10694000ce0090001e00780051ff07001e0fe800e7
:10695000e03f20009e007800808f5000d1ff34007f
:10696000f03f200027ff0700400798004e009000ee
:106970000000e00003003a00f1ff2000f03f20009b
:1069800043ff07000080fa00000006006000fa00e4
:1069900060df98006ed890000000fb004a00dd0028
:1069a00030079800002820000100200040079800d0
:1069b000510798003e009000cf80de004e0190000d
:1069c000de019000020040008380480040079800ec
:1069d000510798000000eb00000f780035003700e9
:1069e0001e0078006101b9004e009000de009000aa
:1069f00002004000838048006007980071079800fb
:106a0000120424006e009000fe0090006ae6070069
:106a10000000eb00100798000000eb001007980042
:106a2000190037001e009000000040001e004000ca
:106a3000000f98008e089000008020000080400029
:106a4000104078008000fb000e0890000001e80074
:106a50000080200000004100104078000000fb0092
:106a60004800dd00808040001e00900000004000d3
:106a7000000047007e004000010878001e009000e2
:106a80000000e800100798001e009000ff0f500063
:106a9000e4ff34007e00470003022000000178007c
:106aa0006e009000fe00900051e6070001042000f7
:106ab0001e8f4000f03f20009e007800808f500025
:106ac000c7ff34006ed890000000fb004900dd00d5
:106ad000100f98000028220001002000200f9800cd
:106ae000310f98001e089000cf80de002e09900024
:106af000be0990000200400083804800200f9800eb
:106b0000310f98000000eb00000f780035003700cf
:106b10001e0078006101b9002e089000be089000a8
:106b20000200400083804800400f9800510f9800f9
:106b3000120424004e089000de0890001ee60700b4
:106b40000000eb00200798000000eb0020079800f1
:106b5000190037002e009000000040001e00400089
:106b6000600f9800ee08900000c0200000804000f8
:106b7000104078008000fb006e0890000001e800e3
:106b800000c0200000004100104078000000fb0021
:106b90004800dd00808040002e0090000000400092
:106ba000000047007e004000010878002e009000a1
:106bb0000000e800200798002e009000ff0f500012
:106bc000e4ff34007e00470003022000000178004b
:106bd0004e089000de08900005e607000104200042
:106be0001e8f4000f01f20009e007800808f500014
:106bf000c7ff34000080fa00000006000400fa001d
:106c00002047980020e60700000f7800f03f2000a2
:106c10001e0f60001e0078000080fa0000000600d1
:106c20000000fa000080fa00000006002200fa00ce
:106c300010c0b300204798000040eb003047980098
:106c40002ae60700f6ff07002e4090000004e0004f
:106c500009003a000040eb00304798000000eb00cc
:106c600020079800ae0090003e409000dffe070035
:106c700030079800f4ff370030c0b3003047980069
:106c80000000eb00000f78000000eb00000f780020
:106c90000b0037009e007800410798009e007800a6
:106ca000510798004e0090004200de0060079800f7
:106cb000de0090006e00900075fe07001e0fe800d9
:106cc000f0ff20009e007800808f5000f1ff34001c
:106cd000e9fe07003e4090002cff07008000eb001b
:106ce00030c0b30006fe07007007980011002000b6
:106cf00030c0b30002fe0700000f98002100200002
:106d000030c0b300fefd0700100f980031002000d6
:106d100030c0b300fafd0700200f980041002000aa
:106d200030c0b300f6fd0700300f9800510020007e
:106d300030c0b300f2fd0700400f98006100200052
:106d400030c0b300eefd0700500f98007100200026
:106d500030c0b300eafd0700600f980081002000fa
:106d600030c0b300e6fd0700700f980091002000ce
:106d700030c0b300e2fd070000179800b2ff3700f3
:020000040000fa
:106d8000000800000006000000000000000e0000e7
:0c6d900006000000000000007c028000f3
:020000040000fa
:0200000401f009
:04000000e3bf00005a
:020000040000fa
:0200000401f009
:04000400ff7f00007a
:020000040000fa
:0200000401f009
:04000800ffff0000f6
:020000040000fa
:0200000401f009
:04001400ffff0000ea
:020000040000fa
:0200000401f009
:04001800ffff0000e6
:00000001FF
